{
  "contractName": "IdeasChainICO",
  "abi": [
    {
      "inputs": [
        {
          "internalType": "address",
          "name": "_tokenAddr",
          "type": "address"
        }
      ],
      "stateMutability": "nonpayable",
      "type": "constructor"
    },
    {
      "stateMutability": "payable",
      "type": "fallback",
      "payable": true
    },
    {
      "inputs": [],
      "name": "RATE",
      "outputs": [
        {
          "internalType": "uint256",
          "name": "",
          "type": "uint256"
        }
      ],
      "stateMutability": "view",
      "type": "function",
      "constant": true
    }
  ],
  "bytecode": "0x60806040526103e860015534801561001657600080fd5b506040516102203803806102208339818101604052602081101561003957600080fd5b8101908080519060200190929190505050806000806101000a81548173ffffffffffffffffffffffffffffffffffffffff021916908373ffffffffffffffffffffffffffffffffffffffff160217905550506101868061009a6000396000f3fe6080604052600436106100225760003560e01c8063664e97041461010057610023565b5b600061002e3461012b565b905060008054906101000a900473ffffffffffffffffffffffffffffffffffffffff1673ffffffffffffffffffffffffffffffffffffffff1663a9059cbb33836040518363ffffffff1660e01b8152600401808373ffffffffffffffffffffffffffffffffffffffff16815260200182815260200192505050602060405180830381600087803b1580156100c157600080fd5b505af11580156100d5573d6000803e3d6000fd5b505050506040513d60208110156100eb57600080fd5b81019080805190602001909291905050505050005b34801561010c57600080fd5b5061011561014a565b6040518082815260200191505060405180910390f35b6000600154670de0b6b3a7640000838161014157fe5b04029050919050565b6001548156fea26469706673582212203c34d887cd16d433d2ee3e18ee8174fabf8f5f8b2cf78f72a0c3b900d08bd57264736f6c63430007050033",
  "immutableReferences": {},
  "source": "// SPDX-License-Identifier: GPL-3.0\npragma solidity >=0.7.0 <0.8.0;\n\nimport \"./IdeasChainToken.sol\";\nimport \"@openzeppelin/contracts/math/SafeMath.sol\";\n\ncontract IdeasChainICO {\n  using SafeMath for uint256;\n\n  IdeasChainToken token;\n  uint256 public RATE = 1000; // 1 ETH = 1000 ICT\n\n  constructor(address _tokenAddr) {\n    token = IdeasChainToken(_tokenAddr);\n  }\n\n  fallback() external payable {\n    uint256 _tokenAmount = _getTokenAmount(msg.value);\n    token.transfer(msg.sender, _tokenAmount);\n  }\n\n  function _getTokenAmount(uint256 _weiAmount) internal view returns (uint256) {\n    return (_weiAmount / (10 ** 18)) * RATE;\n  }\n}",
  "sourcePath": "/home/daelankane/code/ed/ether/ideas-chain/contracts/token/IdeasChainICO.sol",
  "compiler": {
    "name": "solc",
    "version": "0.7.5+commit.eb77ed08.Emscripten.clang"
  },
  "schemaVersion": "3.3.2",
  "updatedAt": "2021-01-15T08:22:19.292Z",
  "networkType": "ethereum",
  "devdoc": {
    "kind": "dev",
    "methods": {},
    "version": 1
  },
  "userdoc": {
    "kind": "user",
    "methods": {},
    "version": 1
  }
}