{
  "contractName": "IdeaStorage",
  "abi": [
    {
      "inputs": [],
      "name": "controllerAddress",
      "outputs": [
        {
          "internalType": "address",
          "name": "",
          "type": "address"
        }
      ],
      "stateMutability": "view",
      "type": "function",
      "constant": true
    },
    {
      "inputs": [
        {
          "internalType": "uint256",
          "name": "",
          "type": "uint256"
        }
      ],
      "name": "ideaIds",
      "outputs": [
        {
          "internalType": "uint256",
          "name": "",
          "type": "uint256"
        }
      ],
      "stateMutability": "view",
      "type": "function",
      "constant": true
    },
    {
      "inputs": [
        {
          "internalType": "uint256",
          "name": "",
          "type": "uint256"
        }
      ],
      "name": "ideas",
      "outputs": [
        {
          "internalType": "uint256",
          "name": "id",
          "type": "uint256"
        },
        {
          "internalType": "string",
          "name": "text",
          "type": "string"
        },
        {
          "internalType": "uint256",
          "name": "userId",
          "type": "uint256"
        },
        {
          "internalType": "uint256",
          "name": "postedAt",
          "type": "uint256"
        }
      ],
      "stateMutability": "view",
      "type": "function",
      "constant": true
    },
    {
      "inputs": [],
      "name": "ownerAddress",
      "outputs": [
        {
          "internalType": "address",
          "name": "",
          "type": "address"
        }
      ],
      "stateMutability": "view",
      "type": "function",
      "constant": true
    },
    {
      "inputs": [
        {
          "internalType": "address",
          "name": "_controllerAddress",
          "type": "address"
        }
      ],
      "name": "setControllerAddress",
      "outputs": [],
      "stateMutability": "nonpayable",
      "type": "function"
    },
    {
      "inputs": [
        {
          "internalType": "address",
          "name": "_newOwner",
          "type": "address"
        }
      ],
      "name": "transferOwnership",
      "outputs": [],
      "stateMutability": "nonpayable",
      "type": "function"
    },
    {
      "inputs": [
        {
          "internalType": "uint256",
          "name": "",
          "type": "uint256"
        },
        {
          "internalType": "uint256",
          "name": "",
          "type": "uint256"
        }
      ],
      "name": "userIdeaIds",
      "outputs": [
        {
          "internalType": "uint256",
          "name": "",
          "type": "uint256"
        }
      ],
      "stateMutability": "view",
      "type": "function",
      "constant": true
    },
    {
      "inputs": [
        {
          "internalType": "uint256",
          "name": "_userId",
          "type": "uint256"
        },
        {
          "internalType": "string",
          "name": "_text",
          "type": "string"
        }
      ],
      "name": "createIdea",
      "outputs": [
        {
          "internalType": "uint256",
          "name": "",
          "type": "uint256"
        }
      ],
      "stateMutability": "nonpayable",
      "type": "function"
    },
    {
      "inputs": [
        {
          "internalType": "uint256",
          "name": "_userId",
          "type": "uint256"
        }
      ],
      "name": "getIdeaIdsFromUser",
      "outputs": [
        {
          "internalType": "uint256[]",
          "name": "",
          "type": "uint256[]"
        }
      ],
      "stateMutability": "view",
      "type": "function",
      "constant": true
    },
    {
      "inputs": [],
      "name": "getNumIdeas",
      "outputs": [
        {
          "internalType": "uint256",
          "name": "_numIdeas",
          "type": "uint256"
        }
      ],
      "stateMutability": "view",
      "type": "function",
      "constant": true
    }
  ],
  "bytecode": "0x6080604052600060055534801561001557600080fd5b50336000806101000a81548173ffffffffffffffffffffffffffffffffffffffff021916908373ffffffffffffffffffffffffffffffffffffffff1602179055506109de806100656000396000f3fe608060405234801561001057600080fd5b506004361061009e5760003560e01c806395b538371161006657806395b53837146101f8578063a3078cfe146102b4578063f2fde38b146102f6578063f3d3d4481461033a578063ffbd932f1461037e5761009e565b80634b24ea47146100a357806380e45781146100d757806383d78159146100f55780638913505b146101785780638f84aa09146101c4575b600080fd5b6100ab610457565b604051808273ffffffffffffffffffffffffffffffffffffffff16815260200191505060405180910390f35b6100df61047d565b6040518082815260200191505060405180910390f35b6101216004803603602081101561010b57600080fd5b810190808035906020019092919050505061048a565b6040518080602001828103825283818151815260200191508051906020019060200280838360005b83811015610164578082015181840152602081019050610149565b505050509050019250505060405180910390f35b6101ae6004803603604081101561018e57600080fd5b8101908080359060200190929190803590602001909291905050506104f5565b6040518082815260200191505060405180910390f35b6101cc610526565b604051808273ffffffffffffffffffffffffffffffffffffffff16815260200191505060405180910390f35b6102246004803603602081101561020e57600080fd5b810190808035906020019092919050505061054a565b6040518085815260200180602001848152602001838152602001828103825285818151815260200191508051906020019080838360005b8381101561027657808201518184015260208101905061025b565b50505050905090810190601f1680156102a35780820380516001836020036101000a031916815260200191505b509550505050505060405180910390f35b6102e0600480360360208110156102ca57600080fd5b8101908080359060200190929190505050610612565b6040518082815260200191505060405180910390f35b6103386004803603602081101561030c57600080fd5b81019080803573ffffffffffffffffffffffffffffffffffffffff169060200190929190505050610636565b005b61037c6004803603602081101561035057600080fd5b81019080803573ffffffffffffffffffffffffffffffffffffffff16906020019092919050505061070b565b005b6104416004803603604081101561039457600080fd5b8101908080359060200190929190803590602001906401000000008111156103bb57600080fd5b8201836020820111156103cd57600080fd5b803590602001918460018302840111640100000000831117156103ef57600080fd5b91908080601f016020809104026020016040519081016040528093929190818152602001838380828437600081840152601f19601f8201169050808301925050505050505091929192905050506107a7565b6040518082815260200191505060405180910390f35b600160009054906101000a900473ffffffffffffffffffffffffffffffffffffffff1681565b6000600480549050905090565b6060600360008381526020019081526020016000208054806020026020016040519081016040528092919081815260200182805480156104e957602002820191906000526020600020905b8154815260200190600101908083116104d5575b50505050509050919050565b6003602052816000526040600020818154811061051157600080fd5b90600052602060002001600091509150505481565b60008054906101000a900473ffffffffffffffffffffffffffffffffffffffff1681565b6002602052806000526040600020600091509050806000015490806001018054600181600116156101000203166002900480601f0160208091040260200160405190810160405280929190818152602001828054600181600116156101000203166002900480156105fc5780601f106105d1576101008083540402835291602001916105fc565b820191906000526020600020905b8154815290600101906020018083116105df57829003601f168201915b5050505050908060020154908060030154905084565b6004818154811061062257600080fd5b906000526020600020016000915090505481565b60008054906101000a900473ffffffffffffffffffffffffffffffffffffffff1673ffffffffffffffffffffffffffffffffffffffff163373ffffffffffffffffffffffffffffffffffffffff161461068e57600080fd5b600073ffffffffffffffffffffffffffffffffffffffff168173ffffffffffffffffffffffffffffffffffffffff1614156106c857600080fd5b806000806101000a81548173ffffffffffffffffffffffffffffffffffffffff021916908373ffffffffffffffffffffffffffffffffffffffff16021790555050565b60008054906101000a900473ffffffffffffffffffffffffffffffffffffffff1673ffffffffffffffffffffffffffffffffffffffff163373ffffffffffffffffffffffffffffffffffffffff161461076357600080fd5b80600160006101000a81548173ffffffffffffffffffffffffffffffffffffffff021916908373ffffffffffffffffffffffffffffffffffffffff16021790555050565b6000600160009054906101000a900473ffffffffffffffffffffffffffffffffffffffff1673ffffffffffffffffffffffffffffffffffffffff163373ffffffffffffffffffffffffffffffffffffffff161461080357600080fd5b60056000815480929190600101919050555060405180608001604052806005548152602001838152602001848152602001428152506002600060055481526020019081526020016000206000820151816000015560208201518160010190805190602001906108739291906108fd565b50604082015181600201556060820151816003015590505060036000848152602001908152602001600020600554908060018154018082558091505060019003906000526020600020016000909190919091505560046005549080600181540180825580915050600190039060005260206000200160009091909190915055600554905092915050565b828054600181600116156101000203166002900490600052602060002090601f016020900481019282610933576000855561097a565b82601f1061094c57805160ff191683800117855561097a565b8280016001018555821561097a579182015b8281111561097957825182559160200191906001019061095e565b5b509050610987919061098b565b5090565b5b808211156109a457600081600090555060010161098c565b509056fea2646970667358221220faae04bf85f2042bda45610c6ff635105fa2a84dc8e5d3407aa196872d8b1f7464736f6c63430007050033",
  "immutableReferences": {},
  "source": "// SPDX-License-Identifier: GPL-3.0\npragma solidity >=0.7.0 <0.8.0;\n\nimport \"../helpers/BaseStorage.sol\";\n\ncontract IdeaStorage is BaseStorage {\n\n  struct Idea {\n    uint id;\n    string text;\n    uint userId;\n    uint postedAt;\n  }\n\n  mapping (uint => Idea) public ideas;\n  mapping (uint => uint[]) public userIdeaIds;\n  uint[] public ideaIds;\n  uint latestIdeaId = 0;\n\n  function createIdea(uint _userId, string memory _text) public onlyController returns (uint) {\n    latestIdeaId++;\n    ideas[latestIdeaId] = Idea(latestIdeaId, _text, _userId, block.timestamp);\n    userIdeaIds[_userId].push(latestIdeaId);\n    ideaIds.push(latestIdeaId);\n    return latestIdeaId;\n  }\n\n  function getIdeaIdsFromUser(uint _userId) view public returns(uint[] memory) {\n    return userIdeaIds[_userId];\n  }\n\n  function getNumIdeas() view public returns(uint _numIdeas) {\n    return ideaIds.length;\n  }\n}",
  "sourcePath": "/home/daelankane/code/ed/ether/ideas-chain/contracts/ideas/IdeaStorage.sol",
  "compiler": {
    "name": "solc",
    "version": "0.7.5+commit.eb77ed08.Emscripten.clang"
  },
  "schemaVersion": "3.3.2",
  "updatedAt": "2021-01-15T08:22:18.972Z",
  "networkType": "ethereum",
  "devdoc": {
    "kind": "dev",
    "methods": {},
    "version": 1
  },
  "userdoc": {
    "kind": "user",
    "methods": {},
    "version": 1
  }
}