{
  "contractName": "IdeaStorage",
  "abi": [
    {
      "inputs": [],
      "name": "controllerAddress",
      "outputs": [
        {
          "internalType": "address",
          "name": "",
          "type": "address"
        }
      ],
      "stateMutability": "view",
      "type": "function",
      "constant": true
    },
    {
      "inputs": [
        {
          "internalType": "uint256",
          "name": "",
          "type": "uint256"
        }
      ],
      "name": "ideas",
      "outputs": [
        {
          "internalType": "uint256",
          "name": "id",
          "type": "uint256"
        },
        {
          "internalType": "string",
          "name": "text",
          "type": "string"
        },
        {
          "internalType": "uint256",
          "name": "userId",
          "type": "uint256"
        },
        {
          "internalType": "uint256",
          "name": "postedAt",
          "type": "uint256"
        }
      ],
      "stateMutability": "view",
      "type": "function",
      "constant": true
    },
    {
      "inputs": [],
      "name": "ownerAddress",
      "outputs": [
        {
          "internalType": "address",
          "name": "",
          "type": "address"
        }
      ],
      "stateMutability": "view",
      "type": "function",
      "constant": true
    },
    {
      "inputs": [
        {
          "internalType": "address",
          "name": "_controllerAddress",
          "type": "address"
        }
      ],
      "name": "setControllerAddress",
      "outputs": [],
      "stateMutability": "nonpayable",
      "type": "function"
    },
    {
      "inputs": [
        {
          "internalType": "address",
          "name": "_newOwner",
          "type": "address"
        }
      ],
      "name": "transferOwnership",
      "outputs": [],
      "stateMutability": "nonpayable",
      "type": "function"
    },
    {
      "inputs": [
        {
          "internalType": "uint256",
          "name": "",
          "type": "uint256"
        },
        {
          "internalType": "uint256",
          "name": "",
          "type": "uint256"
        }
      ],
      "name": "userIdeaIds",
      "outputs": [
        {
          "internalType": "uint256",
          "name": "",
          "type": "uint256"
        }
      ],
      "stateMutability": "view",
      "type": "function",
      "constant": true
    },
    {
      "inputs": [
        {
          "internalType": "uint256",
          "name": "_userId",
          "type": "uint256"
        },
        {
          "internalType": "string",
          "name": "_text",
          "type": "string"
        }
      ],
      "name": "createIdea",
      "outputs": [
        {
          "internalType": "uint256",
          "name": "",
          "type": "uint256"
        }
      ],
      "stateMutability": "nonpayable",
      "type": "function"
    },
    {
      "inputs": [
        {
          "internalType": "uint256",
          "name": "_userId",
          "type": "uint256"
        }
      ],
      "name": "getIdeaIdsFromUser",
      "outputs": [
        {
          "internalType": "uint256[]",
          "name": "",
          "type": "uint256[]"
        }
      ],
      "stateMutability": "view",
      "type": "function",
      "constant": true
    }
  ],
  "bytecode": "0x6080604052600060045534801561001557600080fd5b50336000806101000a81548173ffffffffffffffffffffffffffffffffffffffff021916908373ffffffffffffffffffffffffffffffffffffffff16021790555061090c806100656000396000f3fe608060405234801561001057600080fd5b50600436106100885760003560e01c806395b538371161005b57806395b53837146101c4578063f2fde38b14610280578063f3d3d448146102c4578063ffbd932f1461030857610088565b80634b24ea471461008d57806383d78159146100c15780638913505b146101445780638f84aa0914610190575b600080fd5b6100956103e1565b604051808273ffffffffffffffffffffffffffffffffffffffff16815260200191505060405180910390f35b6100ed600480360360208110156100d757600080fd5b8101908080359060200190929190505050610407565b6040518080602001828103825283818151815260200191508051906020019060200280838360005b83811015610130578082015181840152602081019050610115565b505050509050019250505060405180910390f35b61017a6004803603604081101561015a57600080fd5b810190808035906020019092919080359060200190929190505050610472565b6040518082815260200191505060405180910390f35b6101986104a3565b604051808273ffffffffffffffffffffffffffffffffffffffff16815260200191505060405180910390f35b6101f0600480360360208110156101da57600080fd5b81019080803590602001909291905050506104c7565b6040518085815260200180602001848152602001838152602001828103825285818151815260200191508051906020019080838360005b83811015610242578082015181840152602081019050610227565b50505050905090810190601f16801561026f5780820380516001836020036101000a031916815260200191505b509550505050505060405180910390f35b6102c26004803603602081101561029657600080fd5b81019080803573ffffffffffffffffffffffffffffffffffffffff16906020019092919050505061058f565b005b610306600480360360208110156102da57600080fd5b81019080803573ffffffffffffffffffffffffffffffffffffffff169060200190929190505050610664565b005b6103cb6004803603604081101561031e57600080fd5b81019080803590602001909291908035906020019064010000000081111561034557600080fd5b82018360208201111561035757600080fd5b8035906020019184600183028401116401000000008311171561037957600080fd5b91908080601f016020809104026020016040519081016040528093929190818152602001838380828437600081840152601f19601f820116905080830192505050505050509192919290505050610700565b6040518082815260200191505060405180910390f35b600160009054906101000a900473ffffffffffffffffffffffffffffffffffffffff1681565b60606003600083815260200190815260200160002080548060200260200160405190810160405280929190818152602001828054801561046657602002820191906000526020600020905b815481526020019060010190808311610452575b50505050509050919050565b6003602052816000526040600020818154811061048e57600080fd5b90600052602060002001600091509150505481565b60008054906101000a900473ffffffffffffffffffffffffffffffffffffffff1681565b6002602052806000526040600020600091509050806000015490806001018054600181600116156101000203166002900480601f0160208091040260200160405190810160405280929190818152602001828054600181600116156101000203166002900480156105795780601f1061054e57610100808354040283529160200191610579565b820191906000526020600020905b81548152906001019060200180831161055c57829003601f168201915b5050505050908060020154908060030154905084565b60008054906101000a900473ffffffffffffffffffffffffffffffffffffffff1673ffffffffffffffffffffffffffffffffffffffff163373ffffffffffffffffffffffffffffffffffffffff16146105e757600080fd5b600073ffffffffffffffffffffffffffffffffffffffff168173ffffffffffffffffffffffffffffffffffffffff16141561062157600080fd5b806000806101000a81548173ffffffffffffffffffffffffffffffffffffffff021916908373ffffffffffffffffffffffffffffffffffffffff16021790555050565b60008054906101000a900473ffffffffffffffffffffffffffffffffffffffff1673ffffffffffffffffffffffffffffffffffffffff163373ffffffffffffffffffffffffffffffffffffffff16146106bc57600080fd5b80600160006101000a81548173ffffffffffffffffffffffffffffffffffffffff021916908373ffffffffffffffffffffffffffffffffffffffff16021790555050565b6000600160009054906101000a900473ffffffffffffffffffffffffffffffffffffffff1673ffffffffffffffffffffffffffffffffffffffff163373ffffffffffffffffffffffffffffffffffffffff161461075c57600080fd5b60046000815480929190600101919050555060405180608001604052806004548152602001838152602001848152602001428152506002600060045481526020019081526020016000206000820151816000015560208201518160010190805190602001906107cc92919061082b565b506040820151816002015560608201518160030155905050600360008481526020019081526020016000206004549080600181540180825580915050600190039060005260206000200160009091909190915055600454905092915050565b828054600181600116156101000203166002900490600052602060002090601f01602090048101928261086157600085556108a8565b82601f1061087a57805160ff19168380011785556108a8565b828001600101855582156108a8579182015b828111156108a757825182559160200191906001019061088c565b5b5090506108b591906108b9565b5090565b5b808211156108d25760008160009055506001016108ba565b509056fea2646970667358221220788bfd09dd56199219b2393358ed9bf561d5ab72b3684cfd254deb63fdbab7fe64736f6c63430007050033",
  "immutableReferences": {},
  "source": "// SPDX-License-Identifier: GPL-3.0\npragma solidity >=0.7.0 <0.8.0;\n\nimport \"../helpers/BaseStorage.sol\";\n\ncontract IdeaStorage is BaseStorage {\n\n  struct Idea {\n    uint id;\n    string text;\n    uint userId;\n    uint postedAt;\n  }\n\n  mapping (uint => Idea) public ideas;\n  mapping (uint => uint[]) public userIdeaIds;\n  uint latestIdeaId = 0;\n\n  function createIdea(uint _userId, string memory _text) public onlyController returns (uint) {\n    latestIdeaId++;\n    ideas[latestIdeaId] = Idea(latestIdeaId, _text, _userId, block.timestamp);\n    userIdeaIds[_userId].push(latestIdeaId);\n    return latestIdeaId;\n  }\n\n  function getIdeaIdsFromUser(uint _userId) view public returns(uint[] memory) {\n    return userIdeaIds[_userId];\n  }\n}",
  "sourcePath": "/home/daelankane/code/ed/ether/ideas-chain/contracts/ideas/IdeaStorage.sol",
  "compiler": {
    "name": "solc",
    "version": "0.7.5+commit.eb77ed08.Emscripten.clang"
  },
  "schemaVersion": "3.3.2",
  "updatedAt": "2020-12-09T07:27:43.566Z",
  "networkType": "ethereum",
  "devdoc": {
    "kind": "dev",
    "methods": {},
    "version": 1
  },
  "userdoc": {
    "kind": "user",
    "methods": {},
    "version": 1
  }
}